{
  "address": "0x956A8ec88EEBD49c11721324A6837E2B72557d7C",
  "abi": [
    {
      "anonymous": false,
      "inputs": [
        {
          "indexed": false,
          "internalType": "string",
          "name": "providerId",
          "type": "string"
        },
        {
          "indexed": false,
          "internalType": "string",
          "name": "consumerId",
          "type": "string"
        },
        {
          "indexed": false,
          "internalType": "uint256",
          "name": "id",
          "type": "uint256"
        }
      ],
      "name": "AgreementCreated",
      "type": "event"
    },
    {
      "anonymous": false,
      "inputs": [
        {
          "indexed": false,
          "internalType": "uint256",
          "name": "id",
          "type": "uint256"
        }
      ],
      "name": "AgreementSigned",
      "type": "event"
    },
    {
      "anonymous": false,
      "inputs": [
        {
          "indexed": false,
          "internalType": "string",
          "name": "providerId",
          "type": "string"
        },
        {
          "indexed": false,
          "internalType": "string",
          "name": "consumerId",
          "type": "string"
        },
        {
          "indexed": false,
          "internalType": "uint256",
          "name": "id",
          "type": "uint256"
        }
      ],
      "name": "AgreementUpdated",
      "type": "event"
    },
    {
      "inputs": [
        {
          "internalType": "uint256",
          "name": "",
          "type": "uint256"
        }
      ],
      "name": "agreements",
      "outputs": [
        {
          "internalType": "uint256",
          "name": "dataOfferingId",
          "type": "uint256"
        },
        {
          "internalType": "string",
          "name": "purpose",
          "type": "string"
        },
        {
          "internalType": "enum DataSharingAgreement.State",
          "name": "state",
          "type": "uint8"
        },
        {
          "internalType": "string",
          "name": "providerId",
          "type": "string"
        },
        {
          "internalType": "string",
          "name": "consumerId",
          "type": "string"
        },
        {
          "internalType": "uint256",
          "name": "creationDate",
          "type": "uint256"
        },
        {
          "internalType": "uint256",
          "name": "startDate",
          "type": "uint256"
        },
        {
          "internalType": "uint256",
          "name": "endDate",
          "type": "uint256"
        },
        {
          "components": [
            {
              "internalType": "bool",
              "name": "processData",
              "type": "bool"
            },
            {
              "internalType": "bool",
              "name": "shareDataWithThirdParty",
              "type": "bool"
            },
            {
              "internalType": "bool",
              "name": "editData",
              "type": "bool"
            }
          ],
          "internalType": "struct DataSharingAgreement.IntendedUse",
          "name": "intendedUse",
          "type": "tuple"
        },
        {
          "components": [
            {
              "internalType": "bool",
              "name": "copyData",
              "type": "bool"
            },
            {
              "internalType": "bool",
              "name": "transferable",
              "type": "bool"
            },
            {
              "internalType": "bool",
              "name": "exclusiveness",
              "type": "bool"
            },
            {
              "internalType": "bool",
              "name": "revocable",
              "type": "bool"
            }
          ],
          "internalType": "struct DataSharingAgreement.LicenseGrant",
          "name": "licenseGrant",
          "type": "tuple"
        },
        {
          "internalType": "bool",
          "name": "dataStream",
          "type": "bool"
        },
        {
          "internalType": "bool",
          "name": "signed",
          "type": "bool"
        }
      ],
      "stateMutability": "view",
      "type": "function"
    },
    {
      "inputs": [],
      "name": "checkActiveAgreements",
      "outputs": [
        {
          "components": [
            {
              "internalType": "uint256",
              "name": "dataOfferingId",
              "type": "uint256"
            },
            {
              "internalType": "string",
              "name": "purpose",
              "type": "string"
            },
            {
              "internalType": "enum DataSharingAgreement.State",
              "name": "state",
              "type": "uint8"
            },
            {
              "internalType": "string",
              "name": "providerId",
              "type": "string"
            },
            {
              "internalType": "string",
              "name": "consumerId",
              "type": "string"
            },
            {
              "internalType": "uint256",
              "name": "creationDate",
              "type": "uint256"
            },
            {
              "internalType": "uint256",
              "name": "startDate",
              "type": "uint256"
            },
            {
              "internalType": "uint256",
              "name": "endDate",
              "type": "uint256"
            },
            {
              "components": [
                {
                  "internalType": "bool",
                  "name": "processData",
                  "type": "bool"
                },
                {
                  "internalType": "bool",
                  "name": "shareDataWithThirdParty",
                  "type": "bool"
                },
                {
                  "internalType": "bool",
                  "name": "editData",
                  "type": "bool"
                }
              ],
              "internalType": "struct DataSharingAgreement.IntendedUse",
              "name": "intendedUse",
              "type": "tuple"
            },
            {
              "components": [
                {
                  "internalType": "bool",
                  "name": "copyData",
                  "type": "bool"
                },
                {
                  "internalType": "bool",
                  "name": "transferable",
                  "type": "bool"
                },
                {
                  "internalType": "bool",
                  "name": "exclusiveness",
                  "type": "bool"
                },
                {
                  "internalType": "bool",
                  "name": "revocable",
                  "type": "bool"
                }
              ],
              "internalType": "struct DataSharingAgreement.LicenseGrant",
              "name": "licenseGrant",
              "type": "tuple"
            },
            {
              "internalType": "bool",
              "name": "dataStream",
              "type": "bool"
            },
            {
              "internalType": "bool",
              "name": "signed",
              "type": "bool"
            }
          ],
          "internalType": "struct DataSharingAgreement.Agreement[]",
          "name": "",
          "type": "tuple[]"
        }
      ],
      "stateMutability": "view",
      "type": "function"
    },
    {
      "inputs": [
        {
          "internalType": "string",
          "name": "_consumerId",
          "type": "string"
        }
      ],
      "name": "checkAgreementsByConsumer",
      "outputs": [
        {
          "components": [
            {
              "internalType": "uint256",
              "name": "dataOfferingId",
              "type": "uint256"
            },
            {
              "internalType": "string",
              "name": "purpose",
              "type": "string"
            },
            {
              "internalType": "enum DataSharingAgreement.State",
              "name": "state",
              "type": "uint8"
            },
            {
              "internalType": "string",
              "name": "providerId",
              "type": "string"
            },
            {
              "internalType": "string",
              "name": "consumerId",
              "type": "string"
            },
            {
              "internalType": "uint256",
              "name": "creationDate",
              "type": "uint256"
            },
            {
              "internalType": "uint256",
              "name": "startDate",
              "type": "uint256"
            },
            {
              "internalType": "uint256",
              "name": "endDate",
              "type": "uint256"
            },
            {
              "components": [
                {
                  "internalType": "bool",
                  "name": "processData",
                  "type": "bool"
                },
                {
                  "internalType": "bool",
                  "name": "shareDataWithThirdParty",
                  "type": "bool"
                },
                {
                  "internalType": "bool",
                  "name": "editData",
                  "type": "bool"
                }
              ],
              "internalType": "struct DataSharingAgreement.IntendedUse",
              "name": "intendedUse",
              "type": "tuple"
            },
            {
              "components": [
                {
                  "internalType": "bool",
                  "name": "copyData",
                  "type": "bool"
                },
                {
                  "internalType": "bool",
                  "name": "transferable",
                  "type": "bool"
                },
                {
                  "internalType": "bool",
                  "name": "exclusiveness",
                  "type": "bool"
                },
                {
                  "internalType": "bool",
                  "name": "revocable",
                  "type": "bool"
                }
              ],
              "internalType": "struct DataSharingAgreement.LicenseGrant",
              "name": "licenseGrant",
              "type": "tuple"
            },
            {
              "internalType": "bool",
              "name": "dataStream",
              "type": "bool"
            },
            {
              "internalType": "bool",
              "name": "signed",
              "type": "bool"
            }
          ],
          "internalType": "struct DataSharingAgreement.Agreement[]",
          "name": "",
          "type": "tuple[]"
        }
      ],
      "stateMutability": "view",
      "type": "function"
    },
    {
      "inputs": [
        {
          "internalType": "string",
          "name": "_providerId",
          "type": "string"
        }
      ],
      "name": "checkAgreementsByProvider",
      "outputs": [
        {
          "components": [
            {
              "internalType": "uint256",
              "name": "dataOfferingId",
              "type": "uint256"
            },
            {
              "internalType": "string",
              "name": "purpose",
              "type": "string"
            },
            {
              "internalType": "enum DataSharingAgreement.State",
              "name": "state",
              "type": "uint8"
            },
            {
              "internalType": "string",
              "name": "providerId",
              "type": "string"
            },
            {
              "internalType": "string",
              "name": "consumerId",
              "type": "string"
            },
            {
              "internalType": "uint256",
              "name": "creationDate",
              "type": "uint256"
            },
            {
              "internalType": "uint256",
              "name": "startDate",
              "type": "uint256"
            },
            {
              "internalType": "uint256",
              "name": "endDate",
              "type": "uint256"
            },
            {
              "components": [
                {
                  "internalType": "bool",
                  "name": "processData",
                  "type": "bool"
                },
                {
                  "internalType": "bool",
                  "name": "shareDataWithThirdParty",
                  "type": "bool"
                },
                {
                  "internalType": "bool",
                  "name": "editData",
                  "type": "bool"
                }
              ],
              "internalType": "struct DataSharingAgreement.IntendedUse",
              "name": "intendedUse",
              "type": "tuple"
            },
            {
              "components": [
                {
                  "internalType": "bool",
                  "name": "copyData",
                  "type": "bool"
                },
                {
                  "internalType": "bool",
                  "name": "transferable",
                  "type": "bool"
                },
                {
                  "internalType": "bool",
                  "name": "exclusiveness",
                  "type": "bool"
                },
                {
                  "internalType": "bool",
                  "name": "revocable",
                  "type": "bool"
                }
              ],
              "internalType": "struct DataSharingAgreement.LicenseGrant",
              "name": "licenseGrant",
              "type": "tuple"
            },
            {
              "internalType": "bool",
              "name": "dataStream",
              "type": "bool"
            },
            {
              "internalType": "bool",
              "name": "signed",
              "type": "bool"
            }
          ],
          "internalType": "struct DataSharingAgreement.Agreement[]",
          "name": "",
          "type": "tuple[]"
        }
      ],
      "stateMutability": "view",
      "type": "function"
    },
    {
      "inputs": [
        {
          "internalType": "uint256",
          "name": "_dataOfferingId",
          "type": "uint256"
        },
        {
          "internalType": "string",
          "name": "_purpose",
          "type": "string"
        },
        {
          "internalType": "string",
          "name": "_providerId",
          "type": "string"
        },
        {
          "internalType": "string",
          "name": "_consumerId",
          "type": "string"
        },
        {
          "internalType": "uint256[]",
          "name": "dates",
          "type": "uint256[]"
        },
        {
          "components": [
            {
              "internalType": "bool",
              "name": "processData",
              "type": "bool"
            },
            {
              "internalType": "bool",
              "name": "shareDataWithThirdParty",
              "type": "bool"
            },
            {
              "internalType": "bool",
              "name": "editData",
              "type": "bool"
            }
          ],
          "internalType": "struct DataSharingAgreement.IntendedUse",
          "name": "intendedUse",
          "type": "tuple"
        },
        {
          "components": [
            {
              "internalType": "bool",
              "name": "copyData",
              "type": "bool"
            },
            {
              "internalType": "bool",
              "name": "transferable",
              "type": "bool"
            },
            {
              "internalType": "bool",
              "name": "exclusiveness",
              "type": "bool"
            },
            {
              "internalType": "bool",
              "name": "revocable",
              "type": "bool"
            }
          ],
          "internalType": "struct DataSharingAgreement.LicenseGrant",
          "name": "licenseGrant",
          "type": "tuple"
        },
        {
          "internalType": "bool",
          "name": "_dataStream",
          "type": "bool"
        }
      ],
      "name": "createAgreement",
      "outputs": [],
      "stateMutability": "nonpayable",
      "type": "function"
    },
    {
      "inputs": [
        {
          "internalType": "uint256",
          "name": "id",
          "type": "uint256"
        }
      ],
      "name": "getAgreement",
      "outputs": [
        {
          "components": [
            {
              "internalType": "uint256",
              "name": "dataOfferingId",
              "type": "uint256"
            },
            {
              "internalType": "string",
              "name": "purpose",
              "type": "string"
            },
            {
              "internalType": "enum DataSharingAgreement.State",
              "name": "state",
              "type": "uint8"
            },
            {
              "internalType": "string",
              "name": "providerId",
              "type": "string"
            },
            {
              "internalType": "string",
              "name": "consumerId",
              "type": "string"
            },
            {
              "internalType": "uint256",
              "name": "creationDate",
              "type": "uint256"
            },
            {
              "internalType": "uint256",
              "name": "startDate",
              "type": "uint256"
            },
            {
              "internalType": "uint256",
              "name": "endDate",
              "type": "uint256"
            },
            {
              "components": [
                {
                  "internalType": "bool",
                  "name": "processData",
                  "type": "bool"
                },
                {
                  "internalType": "bool",
                  "name": "shareDataWithThirdParty",
                  "type": "bool"
                },
                {
                  "internalType": "bool",
                  "name": "editData",
                  "type": "bool"
                }
              ],
              "internalType": "struct DataSharingAgreement.IntendedUse",
              "name": "intendedUse",
              "type": "tuple"
            },
            {
              "components": [
                {
                  "internalType": "bool",
                  "name": "copyData",
                  "type": "bool"
                },
                {
                  "internalType": "bool",
                  "name": "transferable",
                  "type": "bool"
                },
                {
                  "internalType": "bool",
                  "name": "exclusiveness",
                  "type": "bool"
                },
                {
                  "internalType": "bool",
                  "name": "revocable",
                  "type": "bool"
                }
              ],
              "internalType": "struct DataSharingAgreement.LicenseGrant",
              "name": "licenseGrant",
              "type": "tuple"
            },
            {
              "internalType": "bool",
              "name": "dataStream",
              "type": "bool"
            },
            {
              "internalType": "bool",
              "name": "signed",
              "type": "bool"
            }
          ],
          "internalType": "struct DataSharingAgreement.Agreement",
          "name": "",
          "type": "tuple"
        }
      ],
      "stateMutability": "view",
      "type": "function"
    },
    {
      "inputs": [
        {
          "internalType": "uint256",
          "name": "id",
          "type": "uint256"
        }
      ],
      "name": "getState",
      "outputs": [
        {
          "internalType": "enum DataSharingAgreement.State",
          "name": "",
          "type": "uint8"
        }
      ],
      "stateMutability": "view",
      "type": "function"
    },
    {
      "inputs": [
        {
          "internalType": "uint256",
          "name": "id",
          "type": "uint256"
        },
        {
          "internalType": "string",
          "name": "_consumerId",
          "type": "string"
        }
      ],
      "name": "signAgreement",
      "outputs": [],
      "stateMutability": "nonpayable",
      "type": "function"
    },
    {
      "inputs": [
        {
          "internalType": "uint256",
          "name": "_id",
          "type": "uint256"
        },
        {
          "internalType": "uint256",
          "name": "_dataOfferingId",
          "type": "uint256"
        },
        {
          "internalType": "string",
          "name": "_purpose",
          "type": "string"
        },
        {
          "internalType": "string",
          "name": "_providerId",
          "type": "string"
        },
        {
          "internalType": "string",
          "name": "_consumerId",
          "type": "string"
        },
        {
          "internalType": "uint256[]",
          "name": "dates",
          "type": "uint256[]"
        },
        {
          "components": [
            {
              "internalType": "bool",
              "name": "processData",
              "type": "bool"
            },
            {
              "internalType": "bool",
              "name": "shareDataWithThirdParty",
              "type": "bool"
            },
            {
              "internalType": "bool",
              "name": "editData",
              "type": "bool"
            }
          ],
          "internalType": "struct DataSharingAgreement.IntendedUse",
          "name": "intendedUse",
          "type": "tuple"
        },
        {
          "components": [
            {
              "internalType": "bool",
              "name": "copyData",
              "type": "bool"
            },
            {
              "internalType": "bool",
              "name": "transferable",
              "type": "bool"
            },
            {
              "internalType": "bool",
              "name": "exclusiveness",
              "type": "bool"
            },
            {
              "internalType": "bool",
              "name": "revocable",
              "type": "bool"
            }
          ],
          "internalType": "struct DataSharingAgreement.LicenseGrant",
          "name": "licenseGrant",
          "type": "tuple"
        },
        {
          "internalType": "bool",
          "name": "_dataStream",
          "type": "bool"
        }
      ],
      "name": "updateAgreement",
      "outputs": [],
      "stateMutability": "nonpayable",
      "type": "function"
    }
  ],
  "transactionHash": "0xeda68f11846ed81c0bd741e9f9ea8a38b8f129d5e3a09f1eb6584cac88a3c65a",
  "args": [],
  "solcInputHash": "9995bf71cefdb81b056fb047d5dec4cb",
  "bytecode": "0x608060405234801561001057600080fd5b50613249806100206000396000f3fe608060405234801561001057600080fd5b50600436106100935760003560e01c80637837e729116100665780637837e72914610146578063a630518914610162578063bd14de961461017e578063c2488ce4146101b9578063d526c030146101d557610093565b8063063bd15a1461009857806344c9af28146100b65780634d9af528146100e65780634f9f6fe614610116575b600080fd5b6100a0610205565b6040516100ad91906123f6565b60405180910390f35b6100d060048036038101906100cb9190612458565b610623565b6040516100dd9190612494565b60405180910390f35b61010060048036038101906100fb91906125e4565b610664565b60405161010d91906123f6565b60405180910390f35b610130600480360381019061012b9190612458565b610a9d565b60405161013d919061273f565b60405180910390f35b610160600480360381019061015b9190612936565b610e13565b005b61017c60048036038101906101779190612a71565b611155565b005b61019860048036038101906101939190612458565b611280565b6040516101b09c9b9a99989796959493929190612bcc565b60405180910390f35b6101d360048036038101906101ce9190612c9b565b611580565b005b6101ef60048036038101906101ea91906125e4565b611a91565b6040516101fc91906123f6565b60405180910390f35b6060806000805b60008054905081101561061a576001600281111561022d5761022c612125565b5b6000828154811061024157610240612dc3565b5b90600052602060002090600b020160020160009054906101000a900460ff16600281111561027257610271612125565b5b1415610607576000818154811061028c5761028b612dc3565b5b90600052602060002090600b020160405180610180016040529081600082015481526020016001820180546102c090612e21565b80601f01602080910402602001604051908101604052809291908181526020018280546102ec90612e21565b80156103395780601f1061030e57610100808354040283529160200191610339565b820191906000526020600020905b81548152906001019060200180831161031c57829003601f168201915b505050505081526020016002820160009054906101000a900460ff16600281111561036757610366612125565b5b600281111561037957610378612125565b5b815260200160038201805461038d90612e21565b80601f01602080910402602001604051908101604052809291908181526020018280546103b990612e21565b80156104065780601f106103db57610100808354040283529160200191610406565b820191906000526020600020905b8154815290600101906020018083116103e957829003601f168201915b5050505050815260200160048201805461041f90612e21565b80601f016020809104026020016040519081016040528092919081815260200182805461044b90612e21565b80156104985780601f1061046d57610100808354040283529160200191610498565b820191906000526020600020905b81548152906001019060200180831161047b57829003601f168201915b50505050508152602001600582015481526020016006820154815260200160078201548152602001600882016040518060600160405290816000820160009054906101000a900460ff161515151581526020016000820160019054906101000a900460ff161515151581526020016000820160029054906101000a900460ff1615151515815250508152602001600982016040518060800160405290816000820160009054906101000a900460ff161515151581526020016000820160019054906101000a900460ff161515151581526020016000820160029054906101000a900460ff161515151581526020016000820160039054906101000a900460ff1615151515815250508152602001600a820160009054906101000a900460ff16151515158152602001600a820160019054906101000a900460ff1615151515815250508383815181106105ed576105ec612dc3565b5b6020026020010181905250818061060390612e82565b9250505b808061061290612e82565b91505061020c565b50819250505090565b6000806000838154811061063a57610639612dc3565b5b90600052602060002090600b020190508060020160009054906101000a900460ff16915050919050565b6060806000805b600080549050811015610a9257846040516020016106899190612f07565b60405160208183030381529060405280519060200120600082815481106106b3576106b2612dc3565b5b90600052602060002090600b02016003016040516020016106d49190612fb2565b604051602081830303815290604052805190602001201415610a7f576000818154811061070457610703612dc3565b5b90600052602060002090600b0201604051806101800160405290816000820154815260200160018201805461073890612e21565b80601f016020809104026020016040519081016040528092919081815260200182805461076490612e21565b80156107b15780601f10610786576101008083540402835291602001916107b1565b820191906000526020600020905b81548152906001019060200180831161079457829003601f168201915b505050505081526020016002820160009054906101000a900460ff1660028111156107df576107de612125565b5b60028111156107f1576107f0612125565b5b815260200160038201805461080590612e21565b80601f016020809104026020016040519081016040528092919081815260200182805461083190612e21565b801561087e5780601f106108535761010080835404028352916020019161087e565b820191906000526020600020905b81548152906001019060200180831161086157829003601f168201915b5050505050815260200160048201805461089790612e21565b80601f01602080910402602001604051908101604052809291908181526020018280546108c390612e21565b80156109105780601f106108e557610100808354040283529160200191610910565b820191906000526020600020905b8154815290600101906020018083116108f357829003601f168201915b50505050508152602001600582015481526020016006820154815260200160078201548152602001600882016040518060600160405290816000820160009054906101000a900460ff161515151581526020016000820160019054906101000a900460ff161515151581526020016000820160029054906101000a900460ff1615151515815250508152602001600982016040518060800160405290816000820160009054906101000a900460ff161515151581526020016000820160019054906101000a900460ff161515151581526020016000820160029054906101000a900460ff161515151581526020016000820160039054906101000a900460ff1615151515815250508152602001600a820160009054906101000a900460ff16151515158152602001600a820160019054906101000a900460ff161515151581525050838381518110610a6557610a64612dc3565b5b60200260200101819052508180610a7b90612e82565b9250505b8080610a8a90612e82565b91505061066b565b508192505050919050565b610aa5611eca565b6000808381548110610aba57610ab9612dc3565b5b90600052602060002090600b02019050806040518061018001604052908160008201548152602001600182018054610af190612e21565b80601f0160208091040260200160405190810160405280929190818152602001828054610b1d90612e21565b8015610b6a5780601f10610b3f57610100808354040283529160200191610b6a565b820191906000526020600020905b815481529060010190602001808311610b4d57829003601f168201915b505050505081526020016002820160009054906101000a900460ff166002811115610b9857610b97612125565b5b6002811115610baa57610ba9612125565b5b8152602001600382018054610bbe90612e21565b80601f0160208091040260200160405190810160405280929190818152602001828054610bea90612e21565b8015610c375780601f10610c0c57610100808354040283529160200191610c37565b820191906000526020600020905b815481529060010190602001808311610c1a57829003601f168201915b50505050508152602001600482018054610c5090612e21565b80601f0160208091040260200160405190810160405280929190818152602001828054610c7c90612e21565b8015610cc95780601f10610c9e57610100808354040283529160200191610cc9565b820191906000526020600020905b815481529060010190602001808311610cac57829003601f168201915b50505050508152602001600582015481526020016006820154815260200160078201548152602001600882016040518060600160405290816000820160009054906101000a900460ff161515151581526020016000820160019054906101000a900460ff161515151581526020016000820160029054906101000a900460ff1615151515815250508152602001600982016040518060800160405290816000820160009054906101000a900460ff161515151581526020016000820160019054906101000a900460ff161515151581526020016000820160029054906101000a900460ff161515151581526020016000820160039054906101000a900460ff1615151515815250508152602001600a820160009054906101000a900460ff16151515158152602001600a820160019054906101000a900460ff161515151581525050915050919050565b6000808a81548110610e2857610e27612dc3565b5b90600052602060002090600b0201905088816000018190555087816001019080519060200190610e59929190611f4d565b5086816003019080519060200190610e72929190611f4d565b5085816004019080519060200190610e8b929190611f4d565b504285600081518110610ea157610ea0612dc3565b5b602002602001015111610edc5760018160020160006101000a81548160ff02191690836002811115610ed657610ed5612125565b5b02179055505b84600181518110610ef057610eef612dc3565b5b60200260200101518160060181905550806005015485600181518110610f1957610f18612dc3565b5b602002602001015111610f61576040517f08c379a0000000000000000000000000000000000000000000000000000000008152600401610f589061303b565b60405180910390fd5b84600081518110610f7557610f74612dc3565b5b602002602001015185600181518110610f9157610f90612dc3565b5b602002602001015111610fd9576040517f08c379a0000000000000000000000000000000000000000000000000000000008152600401610fd0906130cd565b60405180910390fd5b84600181518110610fed57610fec612dc3565b5b6020026020010151816007018190555083600001518160080160000160006101000a81548160ff02191690831515021790555083602001518160080160000160016101000a81548160ff02191690831515021790555083604001518160080160000160026101000a81548160ff02191690831515021790555082600001518160090160000160006101000a81548160ff02191690831515021790555082602001518160090160000160016101000a81548160ff02191690831515021790555082604001518160090160000160026101000a81548160ff02191690831515021790555082606001518160090160000160036101000a81548160ff0219169083151502179055508181600a0160006101000a81548160ff0219169083151502179055507fe45a4efc7be91ee38226641b8dfb0a53e062696831d4052b7b79903b7d39301187878c604051611141939291906130ed565b60405180910390a150505050505050505050565b806040516020016111669190612f07565b60405160208183030381529060405280519060200120600083815481106111905761118f612dc3565b5b90600052602060002090600b02016004016040516020016111b19190612fb2565b6040516020818303038152906040528051906020012014611207576040517f08c379a00000000000000000000000000000000000000000000000000000000081526004016111fe906131a4565b60405180910390fd5b60016000838154811061121d5761121c612dc3565b5b90600052602060002090600b0201600a0160016101000a81548160ff0219169083151502179055507fe128256da5d46f76aecc0d0cc60c2dbe58656f40c7cbd375a9115d2b652020128260405161127491906131c4565b60405180910390a15050565b6000818154811061129057600080fd5b90600052602060002090600b02016000915090508060000154908060010180546112b990612e21565b80601f01602080910402602001604051908101604052809291908181526020018280546112e590612e21565b80156113325780601f1061130757610100808354040283529160200191611332565b820191906000526020600020905b81548152906001019060200180831161131557829003601f168201915b5050505050908060020160009054906101000a900460ff169080600301805461135a90612e21565b80601f016020809104026020016040519081016040528092919081815260200182805461138690612e21565b80156113d35780601f106113a8576101008083540402835291602001916113d3565b820191906000526020600020905b8154815290600101906020018083116113b657829003601f168201915b5050505050908060040180546113e890612e21565b80601f016020809104026020016040519081016040528092919081815260200182805461141490612e21565b80156114615780601f1061143657610100808354040283529160200191611461565b820191906000526020600020905b81548152906001019060200180831161144457829003601f168201915b505050505090806005015490806006015490806007015490806008016040518060600160405290816000820160009054906101000a900460ff161515151581526020016000820160019054906101000a900460ff161515151581526020016000820160029054906101000a900460ff16151515158152505090806009016040518060800160405290816000820160009054906101000a900460ff161515151581526020016000820160019054906101000a900460ff161515151581526020016000820160029054906101000a900460ff161515151581526020016000820160039054906101000a900460ff1615151515815250509080600a0160009054906101000a900460ff169080600a0160019054906101000a900460ff1690508c565b611588611eca565b888160000181815250508781602001819052508681606001819052508581608001819052506000816040019060028111156115c6576115c5612125565b5b908160028111156115da576115d9612125565b5b81525050428160a00181815250508060a001518560008151811061160157611600612dc3565b5b6020026020010151116116405760018160400190600281111561162757611626612125565b5b9081600281111561163b5761163a612125565b5b815250505b8460008151811061165457611653612dc3565b5b60200260200101518160c00181815250508060a001518560018151811061167e5761167d612dc3565b5b6020026020010151116116c6576040517f08c379a00000000000000000000000000000000000000000000000000000000081526004016116bd9061303b565b60405180910390fd5b846000815181106116da576116d9612dc3565b5b6020026020010151856001815181106116f6576116f5612dc3565b5b60200260200101511161173e576040517f08c379a0000000000000000000000000000000000000000000000000000000008152600401611735906130cd565b60405180910390fd5b8460018151811061175257611751612dc3565b5b60200260200101518160e001818152505083600001518161010001516000019015159081151581525050836020015181610100015160200190151590811515815250508360400151816101000151604001901515908115158152505082600001518161012001516000019015159081151581525050826020015181610120015160200190151590811515815250508260400151816101200151604001901515908115158152505082606001518161012001516060019015159081151581525050818161014001901515908115158152505060008190806001815401808255809150506001900390600052602060002090600b0201600090919091909150600082015181600001556020820151816001019080519060200190611875929190611f4d565b5060408201518160020160006101000a81548160ff021916908360028111156118a1576118a0612125565b5b021790555060608201518160030190805190602001906118c2929190611f4d565b5060808201518160040190805190602001906118df929190611f4d565b5060a0820151816005015560c0820151816006015560e082015181600701556101008201518160080160008201518160000160006101000a81548160ff02191690831515021790555060208201518160000160016101000a81548160ff02191690831515021790555060408201518160000160026101000a81548160ff02191690831515021790555050506101208201518160090160008201518160000160006101000a81548160ff02191690831515021790555060208201518160000160016101000a81548160ff02191690831515021790555060408201518160000160026101000a81548160ff02191690831515021790555060608201518160000160036101000a81548160ff021916908315150217905550505061014082015181600a0160006101000a81548160ff02191690831515021790555061016082015181600a0160016101000a81548160ff02191690831515021790555050507f6435418332f1be3deea10416eedb87e64daa2a2b4a284b051f39244cc3a0dfa687876001600080549050611a6f91906131df565b604051611a7e939291906130ed565b60405180910390a1505050505050505050565b6060806000805b600080549050811015611ebf5784604051602001611ab69190612f07565b6040516020818303038152906040528051906020012060008281548110611ae057611adf612dc3565b5b90600052602060002090600b0201600401604051602001611b019190612fb2565b604051602081830303815290604052805190602001201415611eac5760008181548110611b3157611b30612dc3565b5b90600052602060002090600b02016040518061018001604052908160008201548152602001600182018054611b6590612e21565b80601f0160208091040260200160405190810160405280929190818152602001828054611b9190612e21565b8015611bde5780601f10611bb357610100808354040283529160200191611bde565b820191906000526020600020905b815481529060010190602001808311611bc157829003601f168201915b505050505081526020016002820160009054906101000a900460ff166002811115611c0c57611c0b612125565b5b6002811115611c1e57611c1d612125565b5b8152602001600382018054611c3290612e21565b80601f0160208091040260200160405190810160405280929190818152602001828054611c5e90612e21565b8015611cab5780601f10611c8057610100808354040283529160200191611cab565b820191906000526020600020905b815481529060010190602001808311611c8e57829003601f168201915b50505050508152602001600482018054611cc490612e21565b80601f0160208091040260200160405190810160405280929190818152602001828054611cf090612e21565b8015611d3d5780601f10611d1257610100808354040283529160200191611d3d565b820191906000526020600020905b815481529060010190602001808311611d2057829003601f168201915b50505050508152602001600582015481526020016006820154815260200160078201548152602001600882016040518060600160405290816000820160009054906101000a900460ff161515151581526020016000820160019054906101000a900460ff161515151581526020016000820160029054906101000a900460ff1615151515815250508152602001600982016040518060800160405290816000820160009054906101000a900460ff161515151581526020016000820160019054906101000a900460ff161515151581526020016000820160029054906101000a900460ff161515151581526020016000820160039054906101000a900460ff1615151515815250508152602001600a820160009054906101000a900460ff16151515158152602001600a820160019054906101000a900460ff161515151581525050838381518110611e9257611e91612dc3565b5b60200260200101819052508180611ea890612e82565b9250505b8080611eb790612e82565b915050611a98565b508192505050919050565b604051806101800160405280600081526020016060815260200160006002811115611ef857611ef7612125565b5b81526020016060815260200160608152602001600081526020016000815260200160008152602001611f28611fd3565b8152602001611f35611ffa565b81526020016000151581526020016000151581525090565b828054611f5990612e21565b90600052602060002090601f016020900481019282611f7b5760008555611fc2565b82601f10611f9457805160ff1916838001178555611fc2565b82800160010185558215611fc2579182015b82811115611fc1578251825591602001919060010190611fa6565b5b509050611fcf919061202a565b5090565b60405180606001604052806000151581526020016000151581526020016000151581525090565b60405180608001604052806000151581526020016000151581526020016000151581526020016000151581525090565b5b8082111561204357600081600090555060010161202b565b5090565b600081519050919050565b600082825260208201905092915050565b6000819050602082019050919050565b6000819050919050565b61208681612073565b82525050565b600081519050919050565b600082825260208201905092915050565b60005b838110156120c65780820151818401526020810190506120ab565b838111156120d5576000848401525b50505050565b6000601f19601f8301169050919050565b60006120f78261208c565b6121018185612097565b93506121118185602086016120a8565b61211a816120db565b840191505092915050565b7f4e487b7100000000000000000000000000000000000000000000000000000000600052602160045260246000fd5b6003811061216557612164612125565b5b50565b600081905061217682612154565b919050565b600061218682612168565b9050919050565b6121968161217b565b82525050565b60008115159050919050565b6121b18161219c565b82525050565b6060820160008201516121cd60008501826121a8565b5060208201516121e060208501826121a8565b5060408201516121f360408501826121a8565b50505050565b60808201600082015161220f60008501826121a8565b50602082015161222260208501826121a8565b50604082015161223560408501826121a8565b50606082015161224860608501826121a8565b50505050565b600061022083016000830151612267600086018261207d565b506020830151848203602086015261227f82826120ec565b9150506040830151612294604086018261218d565b50606083015184820360608601526122ac82826120ec565b915050608083015184820360808601526122c682826120ec565b91505060a08301516122db60a086018261207d565b5060c08301516122ee60c086018261207d565b5060e083015161230160e086018261207d565b506101008301516123166101008601826121b7565b5061012083015161232b6101608601826121f9565b506101408301516123406101e08601826121a8565b506101608301516123556102008601826121a8565b508091505092915050565b600061236c838361224e565b905092915050565b6000602082019050919050565b600061238c82612047565b6123968185612052565b9350836020820285016123a885612063565b8060005b858110156123e457848403895281516123c58582612360565b94506123d083612374565b925060208a019950506001810190506123ac565b50829750879550505050505092915050565b600060208201905081810360008301526124108184612381565b905092915050565b6000604051905090565b600080fd5b600080fd5b61243581612073565b811461244057600080fd5b50565b6000813590506124528161242c565b92915050565b60006020828403121561246e5761246d612422565b5b600061247c84828501612443565b91505092915050565b61248e8161217b565b82525050565b60006020820190506124a96000830184612485565b92915050565b600080fd5b600080fd5b7f4e487b7100000000000000000000000000000000000000000000000000000000600052604160045260246000fd5b6124f1826120db565b810181811067ffffffffffffffff821117156125105761250f6124b9565b5b80604052505050565b6000612523612418565b905061252f82826124e8565b919050565b600067ffffffffffffffff82111561254f5761254e6124b9565b5b612558826120db565b9050602081019050919050565b82818337600083830152505050565b600061258761258284612534565b612519565b9050828152602081018484840111156125a3576125a26124b4565b5b6125ae848285612565565b509392505050565b600082601f8301126125cb576125ca6124af565b5b81356125db848260208601612574565b91505092915050565b6000602082840312156125fa576125f9612422565b5b600082013567ffffffffffffffff81111561261857612617612427565b5b612624848285016125b6565b91505092915050565b600061022083016000830151612646600086018261207d565b506020830151848203602086015261265e82826120ec565b9150506040830151612673604086018261218d565b506060830151848203606086015261268b82826120ec565b915050608083015184820360808601526126a582826120ec565b91505060a08301516126ba60a086018261207d565b5060c08301516126cd60c086018261207d565b5060e08301516126e060e086018261207d565b506101008301516126f56101008601826121b7565b5061012083015161270a6101608601826121f9565b5061014083015161271f6101e08601826121a8565b506101608301516127346102008601826121a8565b508091505092915050565b60006020820190508181036000830152612759818461262d565b905092915050565b600067ffffffffffffffff82111561277c5761277b6124b9565b5b602082029050602081019050919050565b600080fd5b60006127a56127a084612761565b612519565b905080838252602082019050602084028301858111156127c8576127c761278d565b5b835b818110156127f157806127dd8882612443565b8452602084019350506020810190506127ca565b5050509392505050565b600082601f8301126128105761280f6124af565b5b8135612820848260208601612792565b91505092915050565b600080fd5b6128378161219c565b811461284257600080fd5b50565b6000813590506128548161282e565b92915050565b6000606082840312156128705761286f612829565b5b61287a6060612519565b9050600061288a84828501612845565b600083015250602061289e84828501612845565b60208301525060406128b284828501612845565b60408301525092915050565b6000608082840312156128d4576128d3612829565b5b6128de6080612519565b905060006128ee84828501612845565b600083015250602061290284828501612845565b602083015250604061291684828501612845565b604083015250606061292a84828501612845565b60608301525092915050565b60008060008060008060008060006101c08a8c03121561295957612958612422565b5b60006129678c828d01612443565b99505060206129788c828d01612443565b98505060408a013567ffffffffffffffff81111561299957612998612427565b5b6129a58c828d016125b6565b97505060608a013567ffffffffffffffff8111156129c6576129c5612427565b5b6129d28c828d016125b6565b96505060808a013567ffffffffffffffff8111156129f3576129f2612427565b5b6129ff8c828d016125b6565b95505060a08a013567ffffffffffffffff811115612a2057612a1f612427565b5b612a2c8c828d016127fb565b94505060c0612a3d8c828d0161285a565b935050610120612a4f8c828d016128be565b9250506101a0612a618c828d01612845565b9150509295985092959850929598565b60008060408385031215612a8857612a87612422565b5b6000612a9685828601612443565b925050602083013567ffffffffffffffff811115612ab757612ab6612427565b5b612ac3858286016125b6565b9150509250929050565b612ad681612073565b82525050565b600082825260208201905092915050565b6000612af88261208c565b612b028185612adc565b9350612b128185602086016120a8565b612b1b816120db565b840191505092915050565b606082016000820151612b3c60008501826121a8565b506020820151612b4f60208501826121a8565b506040820151612b6260408501826121a8565b50505050565b608082016000820151612b7e60008501826121a8565b506020820151612b9160208501826121a8565b506040820151612ba460408501826121a8565b506060820151612bb760608501826121a8565b50505050565b612bc68161219c565b82525050565b600061022082019050612be2600083018f612acd565b8181036020830152612bf4818e612aed565b9050612c03604083018d612485565b8181036060830152612c15818c612aed565b90508181036080830152612c29818b612aed565b9050612c3860a083018a612acd565b612c4560c0830189612acd565b612c5260e0830188612acd565b612c60610100830187612b26565b612c6e610160830186612b68565b612c7c6101e0830185612bbd565b612c8a610200830184612bbd565b9d9c50505050505050505050505050565b6000806000806000806000806101a0898b031215612cbc57612cbb612422565b5b6000612cca8b828c01612443565b985050602089013567ffffffffffffffff811115612ceb57612cea612427565b5b612cf78b828c016125b6565b975050604089013567ffffffffffffffff811115612d1857612d17612427565b5b612d248b828c016125b6565b965050606089013567ffffffffffffffff811115612d4557612d44612427565b5b612d518b828c016125b6565b955050608089013567ffffffffffffffff811115612d7257612d71612427565b5b612d7e8b828c016127fb565b94505060a0612d8f8b828c0161285a565b935050610100612da18b828c016128be565b925050610180612db38b828c01612845565b9150509295985092959890939650565b7f4e487b7100000000000000000000000000000000000000000000000000000000600052603260045260246000fd5b7f4e487b7100000000000000000000000000000000000000000000000000000000600052602260045260246000fd5b60006002820490506001821680612e3957607f821691505b60208210811415612e4d57612e4c612df2565b5b50919050565b7f4e487b7100000000000000000000000000000000000000000000000000000000600052601160045260246000fd5b6000612e8d82612073565b91507fffffffffffffffffffffffffffffffffffffffffffffffffffffffffffffffff821415612ec057612ebf612e53565b5b600182019050919050565b600081905092915050565b6000612ee18261208c565b612eeb8185612ecb565b9350612efb8185602086016120a8565b80840191505092915050565b6000612f138284612ed6565b915081905092915050565b60008190508160005260206000209050919050565b60008154612f4081612e21565b612f4a8186612ecb565b94506001821660008114612f655760018114612f7657612fa9565b60ff19831686528186019350612fa9565b612f7f85612f1e565b60005b83811015612fa157815481890152600182019150602081019050612f82565b838801955050505b50505092915050565b6000612fbe8284612f33565b915081905092915050565b7f456e642064617465206d757374206265206166746572206372656174696f6e2060008201527f646174652e000000000000000000000000000000000000000000000000000000602082015250565b6000613025602583612adc565b915061303082612fc9565b604082019050919050565b6000602082019050818103600083015261305481613018565b9050919050565b7f456e642064617465206d7573742062652061667465722073746172742064617460008201527f652e000000000000000000000000000000000000000000000000000000000000602082015250565b60006130b7602283612adc565b91506130c28261305b565b604082019050919050565b600060208201905081810360008301526130e6816130aa565b9050919050565b600060608201905081810360008301526131078186612aed565b9050818103602083015261311b8185612aed565b905061312a6040830184612acd565b949350505050565b7f4f6e6c792074686520636f6e73756d6572206f6620746869732061677265656d60008201527f656e742063616e207369676e2e00000000000000000000000000000000000000602082015250565b600061318e602d83612adc565b915061319982613132565b604082019050919050565b600060208201905081810360008301526131bd81613181565b9050919050565b60006020820190506131d96000830184612acd565b92915050565b60006131ea82612073565b91506131f583612073565b92508282101561320857613207612e53565b5b82820390509291505056fea26469706673582212209528637dfa4330576d6419aa67d9440e6aba99d023ea86d2b81b32895925e5b164736f6c63430008090033",
  "devdoc": {
    "kind": "dev",
    "methods": {},
    "version": 1
  },
  "userdoc": {
    "kind": "user",
    "methods": {},
    "version": 1
  },
  "storageLayout": {
    "storage": [
      {
        "astId": 60,
        "contract": "contracts/agreement.sol:DataSharingAgreement",
        "label": "agreements",
        "offset": 0,
        "slot": "0",
        "type": "t_array(t_struct(Agreement)33_storage)dyn_storage"
      }
    ],
    "types": {
      "t_array(t_struct(Agreement)33_storage)dyn_storage": {
        "base": "t_struct(Agreement)33_storage",
        "encoding": "dynamic_array",
        "label": "struct DataSharingAgreement.Agreement[]",
        "numberOfBytes": "32"
      },
      "t_bool": {
        "encoding": "inplace",
        "label": "bool",
        "numberOfBytes": "1"
      },
      "t_enum(State)5": {
        "encoding": "inplace",
        "label": "enum DataSharingAgreement.State",
        "numberOfBytes": "1"
      },
      "t_string_storage": {
        "encoding": "bytes",
        "label": "string",
        "numberOfBytes": "32"
      },
      "t_struct(Agreement)33_storage": {
        "encoding": "inplace",
        "label": "struct DataSharingAgreement.Agreement",
        "members": [
          {
            "astId": 7,
            "contract": "contracts/agreement.sol:DataSharingAgreement",
            "label": "dataOfferingId",
            "offset": 0,
            "slot": "0",
            "type": "t_uint256"
          },
          {
            "astId": 9,
            "contract": "contracts/agreement.sol:DataSharingAgreement",
            "label": "purpose",
            "offset": 0,
            "slot": "1",
            "type": "t_string_storage"
          },
          {
            "astId": 12,
            "contract": "contracts/agreement.sol:DataSharingAgreement",
            "label": "state",
            "offset": 0,
            "slot": "2",
            "type": "t_enum(State)5"
          },
          {
            "astId": 14,
            "contract": "contracts/agreement.sol:DataSharingAgreement",
            "label": "providerId",
            "offset": 0,
            "slot": "3",
            "type": "t_string_storage"
          },
          {
            "astId": 16,
            "contract": "contracts/agreement.sol:DataSharingAgreement",
            "label": "consumerId",
            "offset": 0,
            "slot": "4",
            "type": "t_string_storage"
          },
          {
            "astId": 18,
            "contract": "contracts/agreement.sol:DataSharingAgreement",
            "label": "creationDate",
            "offset": 0,
            "slot": "5",
            "type": "t_uint256"
          },
          {
            "astId": 20,
            "contract": "contracts/agreement.sol:DataSharingAgreement",
            "label": "startDate",
            "offset": 0,
            "slot": "6",
            "type": "t_uint256"
          },
          {
            "astId": 22,
            "contract": "contracts/agreement.sol:DataSharingAgreement",
            "label": "endDate",
            "offset": 0,
            "slot": "7",
            "type": "t_uint256"
          },
          {
            "astId": 25,
            "contract": "contracts/agreement.sol:DataSharingAgreement",
            "label": "intendedUse",
            "offset": 0,
            "slot": "8",
            "type": "t_struct(IntendedUse)47_storage"
          },
          {
            "astId": 28,
            "contract": "contracts/agreement.sol:DataSharingAgreement",
            "label": "licenseGrant",
            "offset": 0,
            "slot": "9",
            "type": "t_struct(LicenseGrant)56_storage"
          },
          {
            "astId": 30,
            "contract": "contracts/agreement.sol:DataSharingAgreement",
            "label": "dataStream",
            "offset": 0,
            "slot": "10",
            "type": "t_bool"
          },
          {
            "astId": 32,
            "contract": "contracts/agreement.sol:DataSharingAgreement",
            "label": "signed",
            "offset": 1,
            "slot": "10",
            "type": "t_bool"
          }
        ],
        "numberOfBytes": "352"
      },
      "t_struct(IntendedUse)47_storage": {
        "encoding": "inplace",
        "label": "struct DataSharingAgreement.IntendedUse",
        "members": [
          {
            "astId": 42,
            "contract": "contracts/agreement.sol:DataSharingAgreement",
            "label": "processData",
            "offset": 0,
            "slot": "0",
            "type": "t_bool"
          },
          {
            "astId": 44,
            "contract": "contracts/agreement.sol:DataSharingAgreement",
            "label": "shareDataWithThirdParty",
            "offset": 1,
            "slot": "0",
            "type": "t_bool"
          },
          {
            "astId": 46,
            "contract": "contracts/agreement.sol:DataSharingAgreement",
            "label": "editData",
            "offset": 2,
            "slot": "0",
            "type": "t_bool"
          }
        ],
        "numberOfBytes": "32"
      },
      "t_struct(LicenseGrant)56_storage": {
        "encoding": "inplace",
        "label": "struct DataSharingAgreement.LicenseGrant",
        "members": [
          {
            "astId": 49,
            "contract": "contracts/agreement.sol:DataSharingAgreement",
            "label": "copyData",
            "offset": 0,
            "slot": "0",
            "type": "t_bool"
          },
          {
            "astId": 51,
            "contract": "contracts/agreement.sol:DataSharingAgreement",
            "label": "transferable",
            "offset": 1,
            "slot": "0",
            "type": "t_bool"
          },
          {
            "astId": 53,
            "contract": "contracts/agreement.sol:DataSharingAgreement",
            "label": "exclusiveness",
            "offset": 2,
            "slot": "0",
            "type": "t_bool"
          },
          {
            "astId": 55,
            "contract": "contracts/agreement.sol:DataSharingAgreement",
            "label": "revocable",
            "offset": 3,
            "slot": "0",
            "type": "t_bool"
          }
        ],
        "numberOfBytes": "32"
      },
      "t_uint256": {
        "encoding": "inplace",
        "label": "uint256",
        "numberOfBytes": "32"
      }
    }
  }
}